:020000040800F2
:100000000004002001010008250100082701000864
:10001000290100082B0100082D0100080000000044
:100020000000000000000000000000002F01000898
:10003000310100080000000033010008350100080C
:1000400037010008370100083701000837010008B0
:1000500037010008370100083701000837010008A0
:100060003701000837010008370100083701000890
:100070003701000837010008370100083701000880
:100080003701000837010008370100083701000870
:100090003701000837010008370100083701000860
:1000A0003701000837010008370100083701000850
:1000B0003701000837010008370100083701000840
:1000C0003701000837010008370100083701000830
:1000D0003701000837010008370100083701000820
:1000E000370100083701000837010008DFF80CD09D
:1000F00000F02CF8004800477702000800040020B8
:100100000D488047DFF83400016841F4E0210160C8
:10011000BFF34F8FDFF82800DFF8281001600A488E
:1001200000477047FEE7FEE7FEE7FEE7FEE7FEE773
:10013000FEE7FEE7FEE7FEE72301000824ED00E00E
:100140000CED00E00003FA05ED000008064C074D39
:1001500006E0E06840F0010394E807009847103497
:10016000AC42F6D3FFF7C6FF8002000890020008F9
:1001700070B5194C8320206000256560A560174884
:100180006060012000F02EF8616808436060144947
:100190000D60086840F002000860206840F480307C
:1001A000206020688003FCD5206840F080702060CB
:1001B00020688001FCD5606820F003006060606802
:1001C00040F002006060606840F480006060086891
:1001D00040F01000086070BD0010024000841D0057
:1001E00000200240012804D0B0F5807F03DD01210A
:1001F00002E000202CE00021802801DD012200E047
:1002000000220A44402801DD012100E000210A44C7
:10021000102801DD012100E000210A44082801DD49
:10022000012100E000210A44042801DD012100E051
:1002300000210A44022801DD012100E000211144CF
:10024000012801DD012000E000200844C01D00015C
:10025000702800D10020704702E008C8121F08C1B2
:10026000002AFAD170477047002001E001C1121F37
:10027000002AFBD17047FFF77BFF00BFFEE70000BD
:10028000900200080000002000040000680200083E
:04000005080000ED02
:00000001FF
